{
  "_format": "hh-sol-artifact-1",
  "contractName": "TheTasteExperience",
  "sourceName": "contracts/TheTasteExperience.sol",
  "abi": [
    {
      "inputs": [],
      "stateMutability": "nonpayable",
      "type": "constructor"
    },
    {
      "anonymous": false,
      "inputs": [
        {
          "indexed": true,
          "internalType": "address",
          "name": "owner",
          "type": "address"
        },
        {
          "indexed": true,
          "internalType": "address",
          "name": "approved",
          "type": "address"
        },
        {
          "indexed": true,
          "internalType": "uint256",
          "name": "tokenId",
          "type": "uint256"
        }
      ],
      "name": "Approval",
      "type": "event"
    },
    {
      "anonymous": false,
      "inputs": [
        {
          "indexed": true,
          "internalType": "address",
          "name": "owner",
          "type": "address"
        },
        {
          "indexed": true,
          "internalType": "address",
          "name": "operator",
          "type": "address"
        },
        {
          "indexed": false,
          "internalType": "bool",
          "name": "approved",
          "type": "bool"
        }
      ],
      "name": "ApprovalForAll",
      "type": "event"
    },
    {
      "anonymous": false,
      "inputs": [
        {
          "indexed": true,
          "internalType": "address",
          "name": "previousOwner",
          "type": "address"
        },
        {
          "indexed": true,
          "internalType": "address",
          "name": "newOwner",
          "type": "address"
        }
      ],
      "name": "OwnershipTransferred",
      "type": "event"
    },
    {
      "anonymous": false,
      "inputs": [
        {
          "indexed": true,
          "internalType": "address",
          "name": "from",
          "type": "address"
        },
        {
          "indexed": true,
          "internalType": "address",
          "name": "to",
          "type": "address"
        },
        {
          "indexed": true,
          "internalType": "uint256",
          "name": "tokenId",
          "type": "uint256"
        }
      ],
      "name": "Transfer",
      "type": "event"
    },
    {
      "inputs": [
        {
          "internalType": "address",
          "name": "to",
          "type": "address"
        },
        {
          "internalType": "uint256",
          "name": "tokenId",
          "type": "uint256"
        }
      ],
      "name": "approve",
      "outputs": [],
      "stateMutability": "nonpayable",
      "type": "function"
    },
    {
      "inputs": [
        {
          "internalType": "address",
          "name": "owner",
          "type": "address"
        }
      ],
      "name": "balanceOf",
      "outputs": [
        {
          "internalType": "uint256",
          "name": "",
          "type": "uint256"
        }
      ],
      "stateMutability": "view",
      "type": "function"
    },
    {
      "inputs": [
        {
          "internalType": "uint256",
          "name": "tokenId",
          "type": "uint256"
        }
      ],
      "name": "buyRecipe",
      "outputs": [],
      "stateMutability": "payable",
      "type": "function"
    },
    {
      "inputs": [
        {
          "internalType": "string",
          "name": "uri",
          "type": "string"
        },
        {
          "internalType": "uint256",
          "name": "_price",
          "type": "uint256"
        }
      ],
      "name": "createRecipe",
      "outputs": [],
      "stateMutability": "nonpayable",
      "type": "function"
    },
    {
      "inputs": [
        {
          "internalType": "uint256",
          "name": "tokenId",
          "type": "uint256"
        }
      ],
      "name": "getApproved",
      "outputs": [
        {
          "internalType": "address",
          "name": "",
          "type": "address"
        }
      ],
      "stateMutability": "view",
      "type": "function"
    },
    {
      "inputs": [
        {
          "internalType": "uint256",
          "name": "tokenId",
          "type": "uint256"
        }
      ],
      "name": "getRecipe",
      "outputs": [
        {
          "internalType": "address",
          "name": "",
          "type": "address"
        },
        {
          "internalType": "uint256",
          "name": "",
          "type": "uint256"
        },
        {
          "internalType": "uint256",
          "name": "",
          "type": "uint256"
        },
        {
          "internalType": "bool",
          "name": "",
          "type": "bool"
        },
        {
          "internalType": "bool",
          "name": "",
          "type": "bool"
        },
        {
          "components": [
            {
              "internalType": "address",
              "name": "reviewer",
              "type": "address"
            },
            {
              "internalType": "uint256",
              "name": "rating",
              "type": "uint256"
            },
            {
              "internalType": "string",
              "name": "review",
              "type": "string"
            }
          ],
          "internalType": "struct TheTasteExperience.Feedback[]",
          "name": "",
          "type": "tuple[]"
        },
        {
          "internalType": "uint256",
          "name": "",
          "type": "uint256"
        }
      ],
      "stateMutability": "view",
      "type": "function"
    },
    {
      "inputs": [],
      "name": "getRecipesLength",
      "outputs": [
        {
          "internalType": "uint256",
          "name": "",
          "type": "uint256"
        }
      ],
      "stateMutability": "view",
      "type": "function"
    },
    {
      "inputs": [
        {
          "internalType": "address",
          "name": "owner",
          "type": "address"
        },
        {
          "internalType": "address",
          "name": "operator",
          "type": "address"
        }
      ],
      "name": "isApprovedForAll",
      "outputs": [
        {
          "internalType": "bool",
          "name": "",
          "type": "bool"
        }
      ],
      "stateMutability": "view",
      "type": "function"
    },
    {
      "inputs": [],
      "name": "name",
      "outputs": [
        {
          "internalType": "string",
          "name": "",
          "type": "string"
        }
      ],
      "stateMutability": "view",
      "type": "function"
    },
    {
      "inputs": [],
      "name": "owner",
      "outputs": [
        {
          "internalType": "address",
          "name": "",
          "type": "address"
        }
      ],
      "stateMutability": "view",
      "type": "function"
    },
    {
      "inputs": [
        {
          "internalType": "uint256",
          "name": "tokenId",
          "type": "uint256"
        }
      ],
      "name": "ownerOf",
      "outputs": [
        {
          "internalType": "address",
          "name": "",
          "type": "address"
        }
      ],
      "stateMutability": "view",
      "type": "function"
    },
    {
      "inputs": [
        {
          "internalType": "uint256",
          "name": "tokenId",
          "type": "uint256"
        },
        {
          "internalType": "uint256",
          "name": "_rate",
          "type": "uint256"
        },
        {
          "internalType": "string",
          "name": "_review",
          "type": "string"
        }
      ],
      "name": "rateRecipe",
      "outputs": [],
      "stateMutability": "nonpayable",
      "type": "function"
    },
    {
      "inputs": [],
      "name": "renounceOwnership",
      "outputs": [],
      "stateMutability": "nonpayable",
      "type": "function"
    },
    {
      "inputs": [
        {
          "internalType": "address",
          "name": "from",
          "type": "address"
        },
        {
          "internalType": "address",
          "name": "to",
          "type": "address"
        },
        {
          "internalType": "uint256",
          "name": "tokenId",
          "type": "uint256"
        }
      ],
      "name": "safeTransferFrom",
      "outputs": [],
      "stateMutability": "nonpayable",
      "type": "function"
    },
    {
      "inputs": [
        {
          "internalType": "address",
          "name": "from",
          "type": "address"
        },
        {
          "internalType": "address",
          "name": "to",
          "type": "address"
        },
        {
          "internalType": "uint256",
          "name": "tokenId",
          "type": "uint256"
        },
        {
          "internalType": "bytes",
          "name": "data",
          "type": "bytes"
        }
      ],
      "name": "safeTransferFrom",
      "outputs": [],
      "stateMutability": "nonpayable",
      "type": "function"
    },
    {
      "inputs": [
        {
          "internalType": "address",
          "name": "operator",
          "type": "address"
        },
        {
          "internalType": "bool",
          "name": "approved",
          "type": "bool"
        }
      ],
      "name": "setApprovalForAll",
      "outputs": [],
      "stateMutability": "nonpayable",
      "type": "function"
    },
    {
      "inputs": [
        {
          "internalType": "bytes4",
          "name": "interfaceId",
          "type": "bytes4"
        }
      ],
      "name": "supportsInterface",
      "outputs": [
        {
          "internalType": "bool",
          "name": "",
          "type": "bool"
        }
      ],
      "stateMutability": "view",
      "type": "function"
    },
    {
      "inputs": [],
      "name": "symbol",
      "outputs": [
        {
          "internalType": "string",
          "name": "",
          "type": "string"
        }
      ],
      "stateMutability": "view",
      "type": "function"
    },
    {
      "inputs": [
        {
          "internalType": "uint256",
          "name": "tokenId",
          "type": "uint256"
        }
      ],
      "name": "tokenURI",
      "outputs": [
        {
          "internalType": "string",
          "name": "",
          "type": "string"
        }
      ],
      "stateMutability": "view",
      "type": "function"
    },
    {
      "inputs": [
        {
          "internalType": "address",
          "name": "from",
          "type": "address"
        },
        {
          "internalType": "address",
          "name": "to",
          "type": "address"
        },
        {
          "internalType": "uint256",
          "name": "tokenId",
          "type": "uint256"
        }
      ],
      "name": "transferFrom",
      "outputs": [],
      "stateMutability": "nonpayable",
      "type": "function"
    },
    {
      "inputs": [
        {
          "internalType": "address",
          "name": "newOwner",
          "type": "address"
        }
      ],
      "name": "transferOwnership",
      "outputs": [],
      "stateMutability": "nonpayable",
      "type": "function"
    }
  ],
  "bytecode": "0x60806040523480156200001157600080fd5b506040518060400160405280601481526020017f54686520546173746520457870657269656e63650000000000000000000000008152506040518060400160405280600381526020017f5454450000000000000000000000000000000000000000000000000000000000815250816000908051906020019062000096929190620001a6565b508060019080519060200190620000af929190620001a6565b505050620000d2620000c6620000d860201b60201c565b620000e060201b60201c565b620002bb565b600033905090565b6000600760009054906101000a900473ffffffffffffffffffffffffffffffffffffffff16905081600760006101000a81548173ffffffffffffffffffffffffffffffffffffffff021916908373ffffffffffffffffffffffffffffffffffffffff1602179055508173ffffffffffffffffffffffffffffffffffffffff168173ffffffffffffffffffffffffffffffffffffffff167f8be0079c531659141344cd1fd0a4f28419497f9722a3daafe3b4186f6b6457e060405160405180910390a35050565b828054620001b49062000256565b90600052602060002090601f016020900481019282620001d8576000855562000224565b82601f10620001f357805160ff191683800117855562000224565b8280016001018555821562000224579182015b828111156200022357825182559160200191906001019062000206565b5b50905062000233919062000237565b5090565b5b808211156200025257600081600090555060010162000238565b5090565b600060028204905060018216806200026f57607f821691505b602082108114156200028657620002856200028c565b5b50919050565b7f4e487b7100000000000000000000000000000000000000000000000000000000600052602260045260246000fd5b613c9180620002cb6000396000f3fe60806040526004361061012a5760003560e01c8063715018a6116100ab578063b88d4fde1161006f578063b88d4fde146103cf578063c87b56dd146103f8578063d2b4546714610435578063e985e9c51461045e578063f2fde38b1461049b578063f8d12a41146104c45761012a565b8063715018a61461031d5780637598bdb5146103345780638da5cb5b1461035057806395d89b411461037b578063a22cb465146103a65761012a565b80632bcb42ce116100f25780632bcb42ce1461022657806342842e0e1461024f5780636148cfac146102785780636352211e146102a357806370a08231146102e05761012a565b806301ffc9a71461012f57806306fdde031461016c578063081812fc14610197578063095ea7b3146101d457806323b872dd146101fd575b600080fd5b34801561013b57600080fd5b50610156600480360381019061015191906128c9565b610507565b6040516101639190613017565b60405180910390f35b34801561017857600080fd5b506101816105e9565b60405161018e9190613032565b60405180910390f35b3480156101a357600080fd5b506101be60048036038101906101b9919061296f565b61067b565b6040516101cb9190612f3a565b60405180910390f35b3480156101e057600080fd5b506101fb60048036038101906101f6919061288d565b6106c1565b005b34801561020957600080fd5b50610224600480360381019061021f9190612787565b6107d9565b005b34801561023257600080fd5b5061024d6004803603810190610248919061291b565b610839565b005b34801561025b57600080fd5b5061027660048036038101906102719190612787565b610919565b005b34801561028457600080fd5b5061028d610939565b60405161029a91906132f4565b60405180910390f35b3480156102af57600080fd5b506102ca60048036038101906102c5919061296f565b61094a565b6040516102d79190612f3a565b60405180910390f35b3480156102ec57600080fd5b5061030760048036038101906103029190612722565b6109fc565b60405161031491906132f4565b60405180910390f35b34801561032957600080fd5b50610332610ab4565b005b61034e6004803603810190610349919061296f565b610ac8565b005b34801561035c57600080fd5b50610365610e50565b6040516103729190612f3a565b60405180910390f35b34801561038757600080fd5b50610390610e7a565b60405161039d9190613032565b60405180910390f35b3480156103b257600080fd5b506103cd60048036038101906103c89190612851565b610f0c565b005b3480156103db57600080fd5b506103f660048036038101906103f191906127d6565b610f22565b005b34801561040457600080fd5b5061041f600480360381019061041a919061296f565b610f84565b60405161042c9190613032565b60405180910390f35b34801561044157600080fd5b5061045c60048036038101906104579190612998565b610f96565b005b34801561046a57600080fd5b506104856004803603810190610480919061274b565b6111f8565b6040516104929190613017565b60405180910390f35b3480156104a757600080fd5b506104c260048036038101906104bd9190612722565b61128c565b005b3480156104d057600080fd5b506104eb60048036038101906104e6919061296f565b611310565b6040516104fe9796959493929190612fa1565b60405180910390f35b60007f80ac58cd000000000000000000000000000000000000000000000000000000007bffffffffffffffffffffffffffffffffffffffffffffffffffffffff1916827bffffffffffffffffffffffffffffffffffffffffffffffffffffffff191614806105d257507f5b5e139f000000000000000000000000000000000000000000000000000000007bffffffffffffffffffffffffffffffffffffffffffffffffffffffff1916827bffffffffffffffffffffffffffffffffffffffffffffffffffffffff1916145b806105e257506105e18261156d565b5b9050919050565b6060600080546105f89061359f565b80601f01602080910402602001604051908101604052809291908181526020018280546106249061359f565b80156106715780601f1061064657610100808354040283529160200191610671565b820191906000526020600020905b81548152906001019060200180831161065457829003601f168201915b5050505050905090565b6000610686826115d7565b6004600083815260200190815260200160002060009054906101000a900473ffffffffffffffffffffffffffffffffffffffff169050919050565b60006106cc8261094a565b90508073ffffffffffffffffffffffffffffffffffffffff168373ffffffffffffffffffffffffffffffffffffffff16141561073d576040517f08c379a000000000000000000000000000000000000000000000000000000000815260040161073490613274565b60405180910390fd5b8073ffffffffffffffffffffffffffffffffffffffff1661075c611622565b73ffffffffffffffffffffffffffffffffffffffff16148061078b575061078a81610785611622565b6111f8565b5b6107ca576040517f08c379a00000000000000000000000000000000000000000000000000000000081526004016107c1906131f4565b60405180910390fd5b6107d4838361162a565b505050565b6107ea6107e4611622565b826116e3565b610829576040517f08c379a0000000000000000000000000000000000000000000000000000000008152600401610820906132b4565b60405180910390fd5b610834838383611778565b505050565b670de0b6b3a7640000811015610884576040517f08c379a000000000000000000000000000000000000000000000000000000000815260040161087b90613074565b60405180910390fd5b600061089060086119df565b905061089c60086119ed565b6000600960008381526020019081526020016000209050338160000160006101000a81548173ffffffffffffffffffffffffffffffffffffffff021916908373ffffffffffffffffffffffffffffffffffffffff1602179055508281600101819055506109093383611a03565b6109138285611a21565b50505050565b61093483838360405180602001604052806000815250610f22565b505050565b600061094560086119df565b905090565b6000806002600084815260200190815260200160002060009054906101000a900473ffffffffffffffffffffffffffffffffffffffff169050600073ffffffffffffffffffffffffffffffffffffffff168173ffffffffffffffffffffffffffffffffffffffff1614156109f3576040517f08c379a00000000000000000000000000000000000000000000000000000000081526004016109ea90613254565b60405180910390fd5b80915050919050565b60008073ffffffffffffffffffffffffffffffffffffffff168273ffffffffffffffffffffffffffffffffffffffff161415610a6d576040517f08c379a0000000000000000000000000000000000000000000000000000000008152600401610a6490613194565b60405180910390fd5b600360008373ffffffffffffffffffffffffffffffffffffffff1673ffffffffffffffffffffffffffffffffffffffff168152602001908152602001600020549050919050565b610abc611a95565b610ac66000611b13565b565b3373ffffffffffffffffffffffffffffffffffffffff166009600083815260200190815260200160002060000160009054906101000a900473ffffffffffffffffffffffffffffffffffffffff1673ffffffffffffffffffffffffffffffffffffffff161415610b6d576040517f08c379a0000000000000000000000000000000000000000000000000000000008152600401610b6490613134565b60405180910390fd5b6009600082815260200190815260200160002060030160003373ffffffffffffffffffffffffffffffffffffffff1673ffffffffffffffffffffffffffffffffffffffff16815260200190815260200160002060009054906101000a900460ff1615610c0e576040517f08c379a0000000000000000000000000000000000000000000000000000000008152600401610c0590613054565b60405180910390fd5b34600960008381526020019081526020016000206001015414610c66576040517f08c379a0000000000000000000000000000000000000000000000000000000008152600401610c5d906131d4565b60405180910390fd5b60016009600083815260200190815260200160002060030160003373ffffffffffffffffffffffffffffffffffffffff1673ffffffffffffffffffffffffffffffffffffffff16815260200190815260200160002060006101000a81548160ff02191690831515021790555060016009600083815260200190815260200160002060040160003373ffffffffffffffffffffffffffffffffffffffff1673ffffffffffffffffffffffffffffffffffffffff16815260200190815260200160002060006101000a81548160ff021916908315150217905550600960008281526020019081526020016000206002016000815480929190610d6590613602565b919050555060006009600083815260200190815260200160002060000160009054906101000a900473ffffffffffffffffffffffffffffffffffffffff1673ffffffffffffffffffffffffffffffffffffffff1634604051610dc690612f25565b60006040518083038185875af1925050503d8060008114610e03576040519150601f19603f3d011682016040523d82523d6000602084013e610e08565b606091505b5050905080610e4c576040517f08c379a0000000000000000000000000000000000000000000000000000000008152600401610e43906130d4565b60405180910390fd5b5050565b6000600760009054906101000a900473ffffffffffffffffffffffffffffffffffffffff16905090565b606060018054610e899061359f565b80601f0160208091040260200160405190810160405280929190818152602001828054610eb59061359f565b8015610f025780601f10610ed757610100808354040283529160200191610f02565b820191906000526020600020905b815481529060010190602001808311610ee557829003601f168201915b5050505050905090565b610f1e610f17611622565b8383611bd9565b5050565b610f33610f2d611622565b836116e3565b610f72576040517f08c379a0000000000000000000000000000000000000000000000000000000008152600401610f69906132b4565b60405180910390fd5b610f7e84848484611d46565b50505050565b6060610f8f82611da2565b9050919050565b6009600084815260200190815260200160002060040160003373ffffffffffffffffffffffffffffffffffffffff1673ffffffffffffffffffffffffffffffffffffffff16815260200190815260200160002060009054906101000a900460ff16611036576040517f08c379a000000000000000000000000000000000000000000000000000000000815260040161102d90613294565b60405180910390fd5b600582111561107a576040517f08c379a0000000000000000000000000000000000000000000000000000000008152600401611071906132d4565b60405180910390fd5b60006009600085815260200190815260200160002060040160003373ffffffffffffffffffffffffffffffffffffffff1673ffffffffffffffffffffffffffffffffffffffff16815260200190815260200160002060006101000a81548160ff0219169083151502179055506009600084815260200190815260200160002060050160405180606001604052803373ffffffffffffffffffffffffffffffffffffffff16815260200184815260200183815250908060018154018082558091505060019003906000526020600020906003020160009091909190915060008201518160000160006101000a81548173ffffffffffffffffffffffffffffffffffffffff021916908373ffffffffffffffffffffffffffffffffffffffff1602179055506020820151816001015560408201518160020190805190602001906111c3929190612546565b505050816009600085815260200190815260200160002060060160008282546111ec919061342e565b92505081905550505050565b6000600560008473ffffffffffffffffffffffffffffffffffffffff1673ffffffffffffffffffffffffffffffffffffffff16815260200190815260200160002060008373ffffffffffffffffffffffffffffffffffffffff1673ffffffffffffffffffffffffffffffffffffffff16815260200190815260200160002060009054906101000a900460ff16905092915050565b611294611a95565b600073ffffffffffffffffffffffffffffffffffffffff168173ffffffffffffffffffffffffffffffffffffffff161415611304576040517f08c379a00000000000000000000000000000000000000000000000000000000081526004016112fb906130b4565b60405180910390fd5b61130d81611b13565b50565b60008060008060006060600080600960008a815260200190815260200160002090508060000160009054906101000a900473ffffffffffffffffffffffffffffffffffffffff16816001015482600201548360030160003373ffffffffffffffffffffffffffffffffffffffff1673ffffffffffffffffffffffffffffffffffffffff16815260200190815260200160002060009054906101000a900460ff168460040160003373ffffffffffffffffffffffffffffffffffffffff1673ffffffffffffffffffffffffffffffffffffffff16815260200190815260200160002060009054906101000a900460ff1685600501866006015481805480602002602001604051908101604052809291908181526020016000905b8282101561154d57838290600052602060002090600302016040518060600160405290816000820160009054906101000a900473ffffffffffffffffffffffffffffffffffffffff1673ffffffffffffffffffffffffffffffffffffffff1673ffffffffffffffffffffffffffffffffffffffff168152602001600182015481526020016002820180546114bc9061359f565b80601f01602080910402602001604051908101604052809291908181526020018280546114e89061359f565b80156115355780601f1061150a57610100808354040283529160200191611535565b820191906000526020600020905b81548152906001019060200180831161151857829003601f168201915b50505050508152505081526020019060010190611429565b505050509150975097509750975097509750975050919395979092949650565b60007f01ffc9a7000000000000000000000000000000000000000000000000000000007bffffffffffffffffffffffffffffffffffffffffffffffffffffffff1916827bffffffffffffffffffffffffffffffffffffffffffffffffffffffff1916149050919050565b6115e081611eb5565b61161f576040517f08c379a000000000000000000000000000000000000000000000000000000000815260040161161690613254565b60405180910390fd5b50565b600033905090565b816004600083815260200190815260200160002060006101000a81548173ffffffffffffffffffffffffffffffffffffffff021916908373ffffffffffffffffffffffffffffffffffffffff160217905550808273ffffffffffffffffffffffffffffffffffffffff1661169d8361094a565b73ffffffffffffffffffffffffffffffffffffffff167f8c5be1e5ebec7d5bd14f71427d1e84f3dd0314c0f7b2291e5b200ac8c7c3b92560405160405180910390a45050565b6000806116ef8361094a565b90508073ffffffffffffffffffffffffffffffffffffffff168473ffffffffffffffffffffffffffffffffffffffff161480611731575061173081856111f8565b5b8061176f57508373ffffffffffffffffffffffffffffffffffffffff166117578461067b565b73ffffffffffffffffffffffffffffffffffffffff16145b91505092915050565b8273ffffffffffffffffffffffffffffffffffffffff166117988261094a565b73ffffffffffffffffffffffffffffffffffffffff16146117ee576040517f08c379a00000000000000000000000000000000000000000000000000000000081526004016117e5906130f4565b60405180910390fd5b600073ffffffffffffffffffffffffffffffffffffffff168273ffffffffffffffffffffffffffffffffffffffff16141561185e576040517f08c379a000000000000000000000000000000000000000000000000000000000815260040161185590613154565b60405180910390fd5b611869838383611f21565b61187460008261162a565b6001600360008573ffffffffffffffffffffffffffffffffffffffff1673ffffffffffffffffffffffffffffffffffffffff16815260200190815260200160002060008282546118c491906134b5565b925050819055506001600360008473ffffffffffffffffffffffffffffffffffffffff1673ffffffffffffffffffffffffffffffffffffffff168152602001908152602001600020600082825461191b919061342e565b92505081905550816002600083815260200190815260200160002060006101000a81548173ffffffffffffffffffffffffffffffffffffffff021916908373ffffffffffffffffffffffffffffffffffffffff160217905550808273ffffffffffffffffffffffffffffffffffffffff168473ffffffffffffffffffffffffffffffffffffffff167fddf252ad1be2c89b69c2b068fc378daa952ba7f163c4a11628f55a4df523b3ef60405160405180910390a46119da838383611f26565b505050565b600081600001549050919050565b6001816000016000828254019250508190555050565b611a1d828260405180602001604052806000815250611f2b565b5050565b611a2a82611eb5565b611a69576040517f08c379a0000000000000000000000000000000000000000000000000000000008152600401611a60906131b4565b60405180910390fd5b80600660008481526020019081526020016000209080519060200190611a90929190612546565b505050565b611a9d611622565b73ffffffffffffffffffffffffffffffffffffffff16611abb610e50565b73ffffffffffffffffffffffffffffffffffffffff1614611b11576040517f08c379a0000000000000000000000000000000000000000000000000000000008152600401611b0890613234565b60405180910390fd5b565b6000600760009054906101000a900473ffffffffffffffffffffffffffffffffffffffff16905081600760006101000a81548173ffffffffffffffffffffffffffffffffffffffff021916908373ffffffffffffffffffffffffffffffffffffffff1602179055508173ffffffffffffffffffffffffffffffffffffffff168173ffffffffffffffffffffffffffffffffffffffff167f8be0079c531659141344cd1fd0a4f28419497f9722a3daafe3b4186f6b6457e060405160405180910390a35050565b8173ffffffffffffffffffffffffffffffffffffffff168373ffffffffffffffffffffffffffffffffffffffff161415611c48576040517f08c379a0000000000000000000000000000000000000000000000000000000008152600401611c3f90613174565b60405180910390fd5b80600560008573ffffffffffffffffffffffffffffffffffffffff1673ffffffffffffffffffffffffffffffffffffffff16815260200190815260200160002060008473ffffffffffffffffffffffffffffffffffffffff1673ffffffffffffffffffffffffffffffffffffffff16815260200190815260200160002060006101000a81548160ff0219169083151502179055508173ffffffffffffffffffffffffffffffffffffffff168373ffffffffffffffffffffffffffffffffffffffff167f17307eab39ab6107e8899845ad3d59bd9653f200f220920489ca2b5937696c3183604051611d399190613017565b60405180910390a3505050565b611d51848484611778565b611d5d84848484611f86565b611d9c576040517f08c379a0000000000000000000000000000000000000000000000000000000008152600401611d9390613094565b60405180910390fd5b50505050565b6060611dad826115d7565b6000600660008481526020019081526020016000208054611dcd9061359f565b80601f0160208091040260200160405190810160405280929190818152602001828054611df99061359f565b8015611e465780601f10611e1b57610100808354040283529160200191611e46565b820191906000526020600020905b815481529060010190602001808311611e2957829003601f168201915b505050505090506000611e5761211d565b9050600081511415611e6d578192505050611eb0565b600082511115611ea2578082604051602001611e8a929190612f01565b60405160208183030381529060405292505050611eb0565b611eab84612134565b925050505b919050565b60008073ffffffffffffffffffffffffffffffffffffffff166002600084815260200190815260200160002060009054906101000a900473ffffffffffffffffffffffffffffffffffffffff1673ffffffffffffffffffffffffffffffffffffffff1614159050919050565b505050565b505050565b611f35838361219c565b611f426000848484611f86565b611f81576040517f08c379a0000000000000000000000000000000000000000000000000000000008152600401611f7890613094565b60405180910390fd5b505050565b6000611fa78473ffffffffffffffffffffffffffffffffffffffff16612376565b15612110578373ffffffffffffffffffffffffffffffffffffffff1663150b7a02611fd0611622565b8786866040518563ffffffff1660e01b8152600401611ff29493929190612f55565b602060405180830381600087803b15801561200c57600080fd5b505af192505050801561203d57506040513d601f19601f8201168201806040525081019061203a91906128f2565b60015b6120c0573d806000811461206d576040519150601f19603f3d011682016040523d82523d6000602084013e612072565b606091505b506000815114156120b8576040517f08c379a00000000000000000000000000000000000000000000000000000000081526004016120af90613094565b60405180910390fd5b805181602001fd5b63150b7a0260e01b7bffffffffffffffffffffffffffffffffffffffffffffffffffffffff1916817bffffffffffffffffffffffffffffffffffffffffffffffffffffffff191614915050612115565b600190505b949350505050565b606060405180602001604052806000815250905090565b606061213f826115d7565b600061214961211d565b905060008151116121695760405180602001604052806000815250612194565b8061217384612399565b604051602001612184929190612f01565b6040516020818303038152906040525b915050919050565b600073ffffffffffffffffffffffffffffffffffffffff168273ffffffffffffffffffffffffffffffffffffffff16141561220c576040517f08c379a000000000000000000000000000000000000000000000000000000000815260040161220390613214565b60405180910390fd5b61221581611eb5565b15612255576040517f08c379a000000000000000000000000000000000000000000000000000000000815260040161224c90613114565b60405180910390fd5b61226160008383611f21565b6001600360008473ffffffffffffffffffffffffffffffffffffffff1673ffffffffffffffffffffffffffffffffffffffff16815260200190815260200160002060008282546122b1919061342e565b92505081905550816002600083815260200190815260200160002060006101000a81548173ffffffffffffffffffffffffffffffffffffffff021916908373ffffffffffffffffffffffffffffffffffffffff160217905550808273ffffffffffffffffffffffffffffffffffffffff16600073ffffffffffffffffffffffffffffffffffffffff167fddf252ad1be2c89b69c2b068fc378daa952ba7f163c4a11628f55a4df523b3ef60405160405180910390a461237260008383611f26565b5050565b6000808273ffffffffffffffffffffffffffffffffffffffff163b119050919050565b606060008214156123e1576040518060400160405280600181526020017f30000000000000000000000000000000000000000000000000000000000000008152509050612541565b600082905060005b600082146124135780806123fc90613602565b915050600a8261240c9190613484565b91506123e9565b60008167ffffffffffffffff811115612455577f4e487b7100000000000000000000000000000000000000000000000000000000600052604160045260246000fd5b6040519080825280601f01601f1916602001820160405280156124875781602001600182028036833780820191505090505b5090505b6000851461253a576001826124a091906134b5565b9150600a856124af919061364b565b60306124bb919061342e565b60f81b8183815181106124f7577f4e487b7100000000000000000000000000000000000000000000000000000000600052603260045260246000fd5b60200101907effffffffffffffffffffffffffffffffffffffffffffffffffffffffffffff1916908160001a905350600a856125339190613484565b945061248b565b8093505050505b919050565b8280546125529061359f565b90600052602060002090601f01602090048101928261257457600085556125bb565b82601f1061258d57805160ff19168380011785556125bb565b828001600101855582156125bb579182015b828111156125ba57825182559160200191906001019061259f565b5b5090506125c891906125cc565b5090565b5b808211156125e55760008160009055506001016125cd565b5090565b60006125fc6125f784613334565b61330f565b90508281526020810184848401111561261457600080fd5b61261f84828561355d565b509392505050565b600061263a61263584613365565b61330f565b90508281526020810184848401111561265257600080fd5b61265d84828561355d565b509392505050565b60008135905061267481613bff565b92915050565b60008135905061268981613c16565b92915050565b60008135905061269e81613c2d565b92915050565b6000815190506126b381613c2d565b92915050565b600082601f8301126126ca57600080fd5b81356126da8482602086016125e9565b91505092915050565b600082601f8301126126f457600080fd5b8135612704848260208601612627565b91505092915050565b60008135905061271c81613c44565b92915050565b60006020828403121561273457600080fd5b600061274284828501612665565b91505092915050565b6000806040838503121561275e57600080fd5b600061276c85828601612665565b925050602061277d85828601612665565b9150509250929050565b60008060006060848603121561279c57600080fd5b60006127aa86828701612665565b93505060206127bb86828701612665565b92505060406127cc8682870161270d565b9150509250925092565b600080600080608085870312156127ec57600080fd5b60006127fa87828801612665565b945050602061280b87828801612665565b935050604061281c8782880161270d565b925050606085013567ffffffffffffffff81111561283957600080fd5b612845878288016126b9565b91505092959194509250565b6000806040838503121561286457600080fd5b600061287285828601612665565b92505060206128838582860161267a565b9150509250929050565b600080604083850312156128a057600080fd5b60006128ae85828601612665565b92505060206128bf8582860161270d565b9150509250929050565b6000602082840312156128db57600080fd5b60006128e98482850161268f565b91505092915050565b60006020828403121561290457600080fd5b6000612912848285016126a4565b91505092915050565b6000806040838503121561292e57600080fd5b600083013567ffffffffffffffff81111561294857600080fd5b612954858286016126e3565b92505060206129658582860161270d565b9150509250929050565b60006020828403121561298157600080fd5b600061298f8482850161270d565b91505092915050565b6000806000606084860312156129ad57600080fd5b60006129bb8682870161270d565b93505060206129cc8682870161270d565b925050604084013567ffffffffffffffff8111156129e957600080fd5b6129f5868287016126e3565b9150509250925092565b6000612a0b8383612e93565b905092915050565b612a1c816134e9565b82525050565b612a2b816134e9565b82525050565b6000612a3c826133a6565b612a4681856133d4565b935083602082028501612a5885613396565b8060005b85811015612a945784840389528151612a7585826129ff565b9450612a80836133c7565b925060208a01995050600181019050612a5c565b50829750879550505050505092915050565b612aaf816134fb565b82525050565b6000612ac0826133b1565b612aca81856133e5565b9350612ada81856020860161356c565b612ae381613738565b840191505092915050565b6000612af9826133bc565b612b038185613401565b9350612b1381856020860161356c565b612b1c81613738565b840191505092915050565b6000612b32826133bc565b612b3c8185613412565b9350612b4c81856020860161356c565b612b5581613738565b840191505092915050565b6000612b6b826133bc565b612b758185613423565b9350612b8581856020860161356c565b80840191505092915050565b6000612b9e601583613412565b9150612ba982613749565b602082019050919050565b6000612bc1601f83613412565b9150612bcc82613772565b602082019050919050565b6000612be4603283613412565b9150612bef8261379b565b604082019050919050565b6000612c07602683613412565b9150612c12826137ea565b604082019050919050565b6000612c2a600f83613412565b9150612c3582613839565b602082019050919050565b6000612c4d602583613412565b9150612c5882613862565b604082019050919050565b6000612c70601c83613412565b9150612c7b826138b1565b602082019050919050565b6000612c93600e83613412565b9150612c9e826138da565b602082019050919050565b6000612cb6602483613412565b9150612cc182613903565b604082019050919050565b6000612cd9601983613412565b9150612ce482613952565b602082019050919050565b6000612cfc602983613412565b9150612d078261397b565b604082019050919050565b6000612d1f602e83613412565b9150612d2a826139ca565b604082019050919050565b6000612d42601c83613412565b9150612d4d82613a19565b602082019050919050565b6000612d65603e83613412565b9150612d7082613a42565b604082019050919050565b6000612d88602083613412565b9150612d9382613a91565b602082019050919050565b6000612dab602083613412565b9150612db682613aba565b602082019050919050565b6000612dce601883613412565b9150612dd982613ae3565b602082019050919050565b6000612df1602183613412565b9150612dfc82613b0c565b604082019050919050565b6000612e146000836133f6565b9150612e1f82613b5b565b600082019050919050565b6000612e37601483613412565b9150612e4282613b5e565b602082019050919050565b6000612e5a602e83613412565b9150612e6582613b87565b604082019050919050565b6000612e7d601c83613412565b9150612e8882613bd6565b602082019050919050565b6000606083016000830151612eab6000860182612a13565b506020830151612ebe6020860182612ee3565b5060408301518482036040860152612ed68282612aee565b9150508091505092915050565b612eec81613553565b82525050565b612efb81613553565b82525050565b6000612f0d8285612b60565b9150612f198284612b60565b91508190509392505050565b6000612f3082612e07565b9150819050919050565b6000602082019050612f4f6000830184612a22565b92915050565b6000608082019050612f6a6000830187612a22565b612f776020830186612a22565b612f846040830185612ef2565b8181036060830152612f968184612ab5565b905095945050505050565b600060e082019050612fb6600083018a612a22565b612fc36020830189612ef2565b612fd06040830188612ef2565b612fdd6060830187612aa6565b612fea6080830186612aa6565b81810360a0830152612ffc8185612a31565b905061300b60c0830184612ef2565b98975050505050505050565b600060208201905061302c6000830184612aa6565b92915050565b6000602082019050818103600083015261304c8184612b27565b905092915050565b6000602082019050818103600083015261306d81612b91565b9050919050565b6000602082019050818103600083015261308d81612bb4565b9050919050565b600060208201905081810360008301526130ad81612bd7565b9050919050565b600060208201905081810360008301526130cd81612bfa565b9050919050565b600060208201905081810360008301526130ed81612c1d565b9050919050565b6000602082019050818103600083015261310d81612c40565b9050919050565b6000602082019050818103600083015261312d81612c63565b9050919050565b6000602082019050818103600083015261314d81612c86565b9050919050565b6000602082019050818103600083015261316d81612ca9565b9050919050565b6000602082019050818103600083015261318d81612ccc565b9050919050565b600060208201905081810360008301526131ad81612cef565b9050919050565b600060208201905081810360008301526131cd81612d12565b9050919050565b600060208201905081810360008301526131ed81612d35565b9050919050565b6000602082019050818103600083015261320d81612d58565b9050919050565b6000602082019050818103600083015261322d81612d7b565b9050919050565b6000602082019050818103600083015261324d81612d9e565b9050919050565b6000602082019050818103600083015261326d81612dc1565b9050919050565b6000602082019050818103600083015261328d81612de4565b9050919050565b600060208201905081810360008301526132ad81612e2a565b9050919050565b600060208201905081810360008301526132cd81612e4d565b9050919050565b600060208201905081810360008301526132ed81612e70565b9050919050565b60006020820190506133096000830184612ef2565b92915050565b600061331961332a565b905061332582826135d1565b919050565b6000604051905090565b600067ffffffffffffffff82111561334f5761334e613709565b5b61335882613738565b9050602081019050919050565b600067ffffffffffffffff8211156133805761337f613709565b5b61338982613738565b9050602081019050919050565b6000819050602082019050919050565b600081519050919050565b600081519050919050565b600081519050919050565b6000602082019050919050565b600082825260208201905092915050565b600082825260208201905092915050565b600081905092915050565b600082825260208201905092915050565b600082825260208201905092915050565b600081905092915050565b600061343982613553565b915061344483613553565b9250827fffffffffffffffffffffffffffffffffffffffffffffffffffffffffffffffff038211156134795761347861367c565b5b828201905092915050565b600061348f82613553565b915061349a83613553565b9250826134aa576134a96136ab565b5b828204905092915050565b60006134c082613553565b91506134cb83613553565b9250828210156134de576134dd61367c565b5b828203905092915050565b60006134f482613533565b9050919050565b60008115159050919050565b60007fffffffff0000000000000000000000000000000000000000000000000000000082169050919050565b600073ffffffffffffffffffffffffffffffffffffffff82169050919050565b6000819050919050565b82818337600083830152505050565b60005b8381101561358a57808201518184015260208101905061356f565b83811115613599576000848401525b50505050565b600060028204905060018216806135b757607f821691505b602082108114156135cb576135ca6136da565b5b50919050565b6135da82613738565b810181811067ffffffffffffffff821117156135f9576135f8613709565b5b80604052505050565b600061360d82613553565b91507fffffffffffffffffffffffffffffffffffffffffffffffffffffffffffffffff8214156136405761363f61367c565b5b600182019050919050565b600061365682613553565b915061366183613553565b925082613671576136706136ab565b5b828206905092915050565b7f4e487b7100000000000000000000000000000000000000000000000000000000600052601160045260246000fd5b7f4e487b7100000000000000000000000000000000000000000000000000000000600052601260045260246000fd5b7f4e487b7100000000000000000000000000000000000000000000000000000000600052602260045260246000fd5b7f4e487b7100000000000000000000000000000000000000000000000000000000600052604160045260246000fd5b6000601f19601f8301169050919050565b7f416c726561647920626f75676874207265636970650000000000000000000000600082015250565b7f526563697065732063616e2774206265206c6973746564206173206672656500600082015250565b7f4552433732313a207472616e7366657220746f206e6f6e20455243373231526560008201527f63656976657220696d706c656d656e7465720000000000000000000000000000602082015250565b7f4f776e61626c653a206e6577206f776e657220697320746865207a65726f206160008201527f6464726573730000000000000000000000000000000000000000000000000000602082015250565b7f5472616e73666572206661696c65640000000000000000000000000000000000600082015250565b7f4552433732313a207472616e736665722066726f6d20696e636f72726563742060008201527f6f776e6572000000000000000000000000000000000000000000000000000000602082015250565b7f4552433732313a20746f6b656e20616c7265616479206d696e74656400000000600082015250565b7f4e6f74206120637573746f6d6572000000000000000000000000000000000000600082015250565b7f4552433732313a207472616e7366657220746f20746865207a65726f2061646460008201527f7265737300000000000000000000000000000000000000000000000000000000602082015250565b7f4552433732313a20617070726f766520746f2063616c6c657200000000000000600082015250565b7f4552433732313a2061646472657373207a65726f206973206e6f74206120766160008201527f6c6964206f776e65720000000000000000000000000000000000000000000000602082015250565b7f45524337323155524953746f726167653a2055524920736574206f66206e6f6e60008201527f6578697374656e7420746f6b656e000000000000000000000000000000000000602082015250565b7f526563697065207072696365206d757374206265206d61746368656400000000600082015250565b7f4552433732313a20617070726f76652063616c6c6572206973206e6f7420746f60008201527f6b656e206f776e6572206e6f7220617070726f76656420666f7220616c6c0000602082015250565b7f4552433732313a206d696e7420746f20746865207a65726f2061646472657373600082015250565b7f4f776e61626c653a2063616c6c6572206973206e6f7420746865206f776e6572600082015250565b7f4552433732313a20696e76616c696420746f6b656e2049440000000000000000600082015250565b7f4552433732313a20617070726f76616c20746f2063757272656e74206f776e6560008201527f7200000000000000000000000000000000000000000000000000000000000000602082015250565b50565b7f4e6f7420612076616c6964207265766965776572000000000000000000000000600082015250565b7f4552433732313a2063616c6c6572206973206e6f7420746f6b656e206f776e6560008201527f72206e6f7220617070726f766564000000000000000000000000000000000000602082015250565b7f52617465206d757374206265206265747765656e203020616e64203500000000600082015250565b613c08816134e9565b8114613c1357600080fd5b50565b613c1f816134fb565b8114613c2a57600080fd5b50565b613c3681613507565b8114613c4157600080fd5b50565b613c4d81613553565b8114613c5857600080fd5b5056fea2646970667358221220a51a02e284c63650307a5070d4cb8beeccb50407b6c3cb69c7d1e4c68062bf1e64736f6c63430008040033",
  "linkReferences": {},
  "deployedLinkReferences": {}
}